:020000040800F2
:10000000783200202D220008D9040008DB04000803
:10001000DF040008E3040008E70400080000000013
:10002000000000000000000000000000EB040008D9
:10003000ED04000800000000EF040008452200085D
:1000400047220008472200084722000847220008EC
:1000500047220008472200084722000847220008DC
:1000600047220008472200084722000847220008CC
:1000700047220008472200084722000847220008BC
:1000800047220008472200084722000847220008AC
:10009000472200084722000847220008472200089C
:1000A000472200084722000847220008472200088C
:1000B000472200084722000847220008472200087C
:1000C000472200084722000847220008472200086C
:1000D00047220008DF3000084722000847220008B6
:1000E000472200084722000847220008DFF80CD00A
:1000F00003F06EFC00480047C1030008783200207E
:1001000010B502F06CFF02F0FFFE4FF4165002F043
:1001100018FF02F08FFE01F0F4FB01F0B9FC00F0D3
:100120002FFF10BDF0B58FB04FF4FA6002F0BFFEA4
:10013000BCA1BE4802F0A0FF4FF47A7002F0B7FEF7
:10014000BBA1BA4802F098FF4FF47A7002F0AFFEFC
:10015000BAA1B64802F090FF4FF47A7002F0A7FE01
:10016000BCA1B24802F088FF4FF47A7002F09FFE03
:10017000AFA1AE4802F080FF42F2107002F097FE8D
:10018000B8A1AA4802F078FF4FF47A7002F08FFE0F
:10019000BA48006803F052F904460D46B8480068B2
:1001A00003F04CF9064632460B46B6A102A8CDE94B
:1001B000004503F09FFE02A99C4802F05DFF4FF44A
:1001C0007A7002F074FE1A21984802F046FF4FF44C
:1001D000FA6002F06CFE0FB0F0BD70B5AC4890F85C
:1001E000510058B30020AA4981F85100084690F800
:1001F000780018B301F16A0004F002FB044603F032
:1002000030F99F490860A2485D3004F0F9FA0446CD
:1002100003F027F9994908609E499948006803F05E
:100220009DF8974908609B499448006803F096F848
:10023000924908600020964981F8780070BD044614
:1002400003E0214694A003F045FEFAE7F8B5002646
:100250008F4890F85000002866D000208C4981F823
:10026000500000BF5EE046B98EA1894802F0DAFF77
:10027000041E55D10120FFF7E2FF641C89A120462E
:1002800002F0D0FF051E48D0072E2ED2DFE806F080
:100290002D040B11181F26002A1B21467C485230C2
:1002A00002F09CFF22E02A1B2146684602F096FFDE
:1002B0001CE02A1B214676485D3002F08FFF15E0D6
:1002C0002A1B21467248683002F088FF0EE02A1B84
:1002D00021466F486A3002F081FF07E02A1B214661
:1002E0006B48763002F07AFF00E000BF00BF2C467A
:1002F0000120674981F851009DF80000412803D191
:10030000012081F8780007E09DF80000562803D10D
:1003100000205F4981F8780002E00220FFF78FFF9C
:10032000701CC6B2062E9EDDF8BD1CB500240EE082
:100330005D495E4801F024FC5C48007803F04CF80D
:100340005B4941F824000A2002F0B1FD641C322C04
:10035000EEDB002409E0564850F8241055480068A8
:1003600002F072FF53490860641C322CF3DB5249DF
:100370005048006802F0F2FF5049086000F079FA36
:10038000012010234EA200210090022000F036FC34
:100390004A48006803F03EF8044601201021032378
:1003A0002246CDE9001000211E2000F057FC01205C
:1003B000102346A200210090412000F01FFC1CBD2C
:1003C000FFF79EFE002000F014FA002000F01FFA54
:1003D00002F0D3FE40F6B83002F069FD20E0FFF7EE
:1003E000A4FFFFF733FFFFF7F8FE4FF47A7002F037
:1003F0005EFD37493148006803F05AF805D33549A6
:100400002E48006803F04AF80AD2002406E0FFF7FD
:1004100089FE4FF47A7002F04AFD641C0A2CF6DB68
:10042000DDE7000041540D0A0000000000440040D8
:1004300041542B434D47463D310D0A0041542B4357
:10044000534D503D31372C3136372C312C380D0A75
:100450000000000041542B435343533D2247534D6A
:10046000220D0A0041542B434D47533D2231333175
:100470003430353036393839220D0A00100000206A
:100480000C0000204E3A2566202020453A256600C3
:10049000342D00200000C8424552524F5225640DB1
:1004A0000A0000002C0000000200002001000020D3
:1004B00088000020040000200000484208000020BE
:1004C0004865617274526174653A000042504D0093
:1004D0000000024300005C42704700BFFEE700BF1F
:1004E000FEE700BFFEE700BFFEE7704770477047BA
:1004F0000CB50020019000906C48006840F48030FA
:100500006A49086000BF6948006800F40030009044
:100510000198401C0190009818B90198B0F5A06F9F
:10052000F1D16248006800F4003010B10120009061
:1005300001E0002000900098012843D15C48006849
:1005400040F010005A4908600846006820F0030097
:1005500008600846006840F00200086053484068A0
:10056000524948600846406848600846406840F480
:10057000806048600846406820F47C104860084667
:10058000406840F4E81048600846006840F0807019
:10059000086000BF4548006800F000700028F9D0EE
:1005A0004248406820F003004049486008464068DF
:1005B00040F00200486000BF3C48406800F00C007A
:1005C0000828F9D10CBD10B5FFF792FF10BD10B58A
:1005D0003648006840F00100344908600846406829
:1005E00034490840314948600846006832490840AB
:1005F0002E4908600846006820F4802008600846FC
:10060000406820F4FE0048604FF41F008860FFF748
:10061000DAFF4FF000602949086010BD10B50021D5
:1006200000200022214B5B6803F00C0121B104295A
:1006300006D0082928D107E0214B224C236027E06F
:100640001F4B204C236023E0184B5B6803F47010B1
:10065000164B5B6803F48032022303EB904022B90F
:10066000194B4343174C23600DE0104B5B6803F4B8
:10067000003323B1144B4343124C236003E0104B6F
:100680004343104C236003E00D4B0E4C236000BF2E
:1006900000BF064B5B68C3F303130C4CE15C094BD2
:1006A0001B68CB40074C236010BD000000100240C7
:1006B000002002400000FFF8FFFFF6FE08ED00E01A
:1006C00000127A001400002000093D0018000020EC
:1006D000032000BF011EA0F10102D0B2FAD1704781
:1006E00010B54FF40051F84801F02FFF4FF480513E
:1006F000F54801F028FFFFF7EBFF4FF40051F248F7
:1007000001F021FF10BD10B54FF40051EE4801F08B
:100710001AFFFFF7DDFF4FF48051EB4801F013FFA4
:10072000FFF7D6FF4FF48051E74801F00EFFFFF7C7
:10073000CFFF10BD70B5044600251FE004F0800017
:1007400028B14FF40051E04801F0FDFE04E04FF401
:100750000051DD4801F0F9FEFFF7BAFF4FF4805178
:10076000D94801F0F0FEFFF7B3FF4FF48051D648AF
:1007700001F0EBFE6006040E681CC5B2082DDDDB3F
:1007800070BD10B54FF40051CF4801F0DCFE4FF4BE
:100790008051CD4801F0D7FEFFF79AFF4FF400518A
:1007A000C94801F0D2FEFFF793FF4FF48051C648CD
:1007B00001F0CBFEFFF78CFF10BD70B505460C466F
:1007C000FFF7DFFF7820FFF7B5FFFFF79CFF1CB1B5
:1007D0004020FFF7AFFF02E00020FFF7ABFFFFF77D
:1007E00092FF2846FFF7A6FFFFF78DFFFFF778FF80
:1007F00070BD10B504461CB90021A620FFF7DDFF2F
:10080000012C03D10021A720FFF7D7FF10BD10B5A1
:1008100004463CB90021C820FFF7CFFF0021A120EA
:10082000FFF7CBFF012C07D10021C020FFF7C5FF48
:100830000021A020FFF7C1FF10BD10B500218D20C1
:10084000FFF7BBFF00211420FFF7B7FF0021AF2007
:10085000FFF7B3FF10BD10B500218D20FFF7ADFFEE
:1008600000211020FFF7A9FF0021AE20FFF7A5FF10
:1008700010BD70B500242BE004F1B001C8B2002116
:10088000FFF79BFF00210220FFF797FF00211020B8
:10089000FFF793FFFFF775FF7820FFF74BFFFFF798
:1008A00032FF4020FFF746FFFFF72DFF002509E04C
:1008B000864901EBC501085DFFF73CFFFFF723FF09
:1008C000681CC5B2802DF3DBFFF70AFF601CC4B2C1
:1008D000082CD1DB70BD70B500240CE0002506E0CB
:1008E00000207A4901EBC5010855681CC5B2802D6E
:1008F000F6DB601CC4B2082CF0DBFFF7BAFF70BD5A
:10090000F0B514460B46CF1701EB5777C7F3C70274
:10091000CF1701EB5777FF10A1EBC707FEB20123FA
:10092000B340DDB24CB1694B03EBC0039B5C2B437E
:10093000664F07EBC007BB541AE0644B03EBC003E0
:100940009B5CDB43614F07EBC007BB545F4B03EB82
:10095000C0039B5C2B435D4F07EBC007BB545B4B55
:1009600003EBC0039B5CDB43584F07EBC007BB5452
:10097000F0BD2DE9FF4F84B081468A4600200290E9
:1009800083460698A0EB09040798A0EB0A06CDF869
:100990000490CDF800A0002C01DD012705E00CB982
:1009A000002702E04FF0FF376442002E02DD4FF0D7
:1009B000010806E016B94FF0000802E04FF0FF38DA
:1009C0006642B44201DD254600E035460020039032
:1009D0001EE0009AD1B2019AD0B2119AFFF790FFAF
:1009E000029820440290B3440298A84205DD029880
:1009F000401B0290019838440190AB4504DDABEBFD
:100A0000050B0098404400900398401C80B203906E
:100A1000691C03988842DCDB08B0BDE8F08F2DE943
:100A2000F04306460F4690460025444643E03A1BF5
:100A3000D1B27219D0B20122FFF762FF3A1BD1B2D4
:100A4000721BD0B20122FFF75BFF3A19D1B2721BC1
:100A5000D0B20122FFF754FF3A19D1B27219D0B2C5
:100A60000122FFF74DFF7A19D1B23219D0B201221B
:100A7000FFF746FF7A1BD1B23219D0B20122FFF73D
:100A80003FFF7A1BD1B2321BD0B20122FFF738FFF1
:100A90007A19D1B2321BD0B20122FFF731FF6D1C9F
:100AA00005FB05F004FB040008FB1809B9F1000F71
:100AB00001DD641E6D1E6000604308FB08F1884282
:100AC000B5DABDE8F0830000000C014050010020C1
:100AD0002DE9FE4F0746884692461C460197CDF801
:100AE0000080082C02D14FF006091FE02046E317D2
:100AF00004EB5373DB1021464FEAE47C04EB5C7C8F
:100B00004FEAEC0CA4EBCC0CBCF1000F02D04FF080
:100B1000010C01E04FF0000C6344224604EBD27C50
:100B20004FEA6C0C03FB0CF303F0FF09AAF1200061
:100B3000C6B200255EE0082C07D106EB4600FE4950
:100B400001EB400010F805B01DE00C2C07D106EBBE
:100B50004600FA4901EB800010F805B013E0102CB4
:100B600005D1F74800EB061010F805B00BE0182C83
:100B700007D106EBC600F34901EB800010F805B081
:100B800001E0BDE8FE8F002002901CE00BF00100A8
:100B900028B1414638460C9AFFF7B2FE09E00C989E
:100BA00008B9012000E00020024641463846FFF720
:100BB000A7FE4FEA6B0B08F1010000F0FF08029856
:100BC000401CC0B2029002980828DFDB781CC7B234
:100BD000082C0BD004EBD4714A100199791A8A427F
:100BE00004D1019F00980830C0B20090DDF8008069
:100BF000681CC5B24D459EDB00BFC2E72DE9F84138
:100C000006460F4614461D46DDF81C8013E0CDF85D
:100C1000008022782B4639463046FFF759FF082DD1
:100C200002D1B01DC6B205E0284605EBD07106EB37
:100C30006101CEB2641C2078202802DB20787E2857
:100C4000E5DDBDE8F88110B50246012000E0504323
:100C50000B1EA1F10104E1B2F9D110BD2DE9FF4F46
:100C600082B0064691461F46DDE90F4A4FF0000B61
:100C7000082C01D14FF0020B002530E0781B401EFC
:100C8000C1B20A20FFF7DFFFB9FBF0F00A21B0FB89
:100C9000F1F201FB1208B8F1000F0ED104EBD47190
:100CA0000BEB610101FB0561C8B223463022CDE99F
:100CB00000A40399FFF70CFF0FE004EBD4710BEBDA
:100CC000610101FB0561C8B208F13001CAB22346D7
:100CD000CDE900A40399FFF7FBFE681CC5B2BD4235
:100CE000CCDB06B0BDE8F08F2DE9FC4F0746884607
:100CF00016461C46BB46CDF804802046E21704EB9E
:100D00005272D2102146E31704EB5373DB10A4EBAD
:100D1000C3030BB1012300E000231A44624392B2E3
:100D20000092002555E0102C05D1874800EB4610B5
:100D300010F805A01BE0182C07D106EBC60083496C
:100D400001EBC00010F805A011E0202C05D180486F
:100D500000EBC61010F805A009E0402C05D17D4835
:100D600000EB462010F805A001E0BDE8FC8F4FF035
:100D700000091CE00AF0010028B1414638460B9AF0
:100D8000FFF7BEFD09E00B9808B9012000E0002044
:100D9000024641463846FFF7B3FD4FEA6A0A08F1BA
:100DA000010000F0FF0809F1010000F0FF09B9F1AE
:100DB000080FDFDB781CC7B2A7EB0B00A04204D101
:100DC0005F4601980830C0B20190DDF80480681CCD
:100DD00085B200988542A6DB00BFC6E708B580460D
:100DE00089469246002600274BE04FB91023324631
:100DF00018218020CDF800A0FFF776FF701CC6B246
:100E0000464522D14FF0000B1AE0012410E00025E6
:100E10000AE0514800EBC400415D601E4E4A02EBFF
:100E2000C0004155681CC5B2082DF2DB601CC4B27D
:100E3000902CECDBFFF71DFD0BF1010000F0FF0B28
:100E40004FEA09105845E0DC0026781CC7B2102F85
:100E500000D10027012410E000250AE03E4800EB05
:100E6000C400415D601E3C4A02EBC0004155681C55
:100E7000C5B2082DF2DB601CC4B2902CECDBFFF78E
:100E8000F8FCB2E72DE9FF4F05460E4617461C4613
:100E9000DDF838904FF0000A0095B3462046E2177F
:100EA00004EB5272D2102146E31704EB5373DB10AC
:100EB000A4EBC3030BB1012300E000231A44D4B216
:100EC0004FF0000858E0002003904EE00D9810F815
:100ED0000A0002900AF101001FFA80FA0020019036
:100EE0001DE0029800F0010028B14A46314628462C
:100EF000FFF706FD0AE0B9F1000F01D1012000E083
:100F00000020024631462846FFF7FAFC02984010BE
:100F10000290701CC6B20198401CC0B201900198AA
:100F20000828DEDB681CC5B20098281AB84217D121
:100F3000009D0BF1080011E02A480008524A000801
:100F4000C64E0008B654000812620008726300081A
:100F5000BA6300083A6400085001002000F0FF0B5B
:100F60005E460398401CC0B203900398B842ADDBC4
:100F700008F1010000F0FF08A045A4DBBDE8FF8FE9
:100F800008B50121082001F0EDFC4FF44050ADF808
:100F9000000014208DF8030003208DF8020069463C
:100FA000394801F023FA4FF44051374801F0CBFAA9
:100FB0000021AE20FFF701FC00210220FFF7FDFB1E
:100FC00000211020FFF7F9FB00214020FFF7F5FB7F
:100FD00000218120FFF7F1FB0021CF20FFF7EDFB7F
:100FE0000021A120FFF7E9FB0021C820FFF7E5FB66
:100FF0000021A620FFF7E1FB0021A820FFF7DDFB81
:1010000000213F20FFF7D9FB0021D320FFF7D5FBBC
:1010100000210846FFF7D1FB0021D520FFF7CDFBCB
:1010200000218020FFF7C9FB0021D920FFF7C5FB75
:101030000021F120FFF7C1FB0021DA20FFF7BDFB03
:1010400000211220FFF7B9FB0021DB20FFF7B5FBE1
:1010500000213020FFF7B1FB00212020FFF7ADFB7E
:1010600000210220FFF7A9FB00218D20FFF7A5FB3F
:1010700000211420FFF7A1FBFFF72DFC0021AF207A
:10108000FFF79BFB08BD0000000C014030B50C468B
:10109000012213E050F82230114605E04D1E50F8B1
:1010A000255040F82150491E002904DD4D1E50F8FE
:1010B00025509D42F2DC40F82130521CA242E9DB6F
:1010C00030BDF0B503461546012217E051F8224025
:1010D000104605E0461E51F8266041F82060401E8B
:1010E000002808DD53F82470461E51F8266053F896
:1010F0002660B742EEDC41F82040521CAA42E5DBF4
:10110000F0BD2DE9F04F05460C469246984629461B
:1011100050462268FFF7D5FF4FF0FF3621E0D4F8A4
:1011200000B0701C2060771C18E055F82710701C68
:1011300010B94FF0FF3001E055F82600A1EB00098F
:10114000C14503DCC8F10000814506DA55F82710D7
:101150002268501C206045F822107F1C5F45E4DBAC
:10116000761C2068B042DADC28462168FFF78EFF43
:10117000BDE8F08FF0B505461C46059E012000270E
:101180000F6030E052F82070B7422BDD52F820C0DB
:10119000471E52F82770BC4524DD012300E05B1C8C
:1011A000C718A74207DA52F8207000EB030C52F878
:1011B0002CC06745F3D052F8207000EB030C52F8B6
:1011C0002CC067450CDD0F680F2F09DAD1F800C07D
:1011D0000CF101070F6045F82C005F1C384402E059
:1011E000184400E0401C671E8742CBDCF0BD2DE9AF
:1011F000F84705460C4616461F46DDE90A9ADDF813
:1012000024803B46324621462846CDF80080FFF731
:10121000B1FF4B46324621462846FFF772FF206851
:10122000504501DA206800E050462060BDE8F887AC
:101230002DE9FF4FC6B0884699460020459000240E
:1012400006E0469850F82410459808444590641CE0
:101250004445F6DB4598B0FBF8F04590002408E0E3
:10126000469850F824104598081AFE4941F8240081
:10127000641C4445F4DB002417E0FA4850F82410BD
:101280000246601C52F820000144A01C52F82000C5
:101290000144E01C52F820000F183846F91707EBFC
:1012A0009171891042F82410641CB4F5F87FE4DBD6
:1012B00000240AE0EB49601C51F8200051F824108A
:1012C000401AE94941F82400641CB4F5F77FF1DDC8
:1012D00000240EE0E44951F824200B46611C53F829
:1012E0002110501800EBD07149101A4642F8241012
:1012F000641CB4F5F77FEDDB00251BE00020439074
:101300002C460BE0D84850F82410601BD74A32F81E
:101310001020439801FB12004390641C681D844216
:10132000F0DB40F27A41439890FBF1F0CE4941F86E
:1013300025006D1CB5F5F47FE0DD00204190002410
:1013400010E0C94850F82400002803DDC64850F8D2
:10135000240003E0C44850F8240040424199084466
:101360004190641CB4F5F77FEBDD40F2EF1141983A
:1013700090FBF1F0419005210822419840F2EF13D3
:10138000CDE901210090B84A40A912A8FFF72FFF2C
:10139000002011904098022821DB01240BE012A8C4
:1013A00050F82410601E12AA52F82000091A119851
:1013B00008441190641C40988442F0DB4098401E21
:1013C000119991FBF0F0119041F27071119891FB1D
:1013D000F0F15498016001215598017005E0A4498D
:1013E00054980160002155980170002407E012A86C
:1013F00050F82400801C30A941F82400641C409857
:101400008442F4DB00240CE0469850F8240095490F
:1014100041F82400489850F82400964941F82400E7
:10142000641C4445F0DB0020429000242DE00120A4
:10143000449030A850F824A04FF080703F900AF1FB
:101440000500B0F5F77F1FDC0A3800281CDD0546D3
:1014500011E0844850F825103F9881420ADA4498F8
:1014600008B1002044907F4850F825003F9021A803
:1014700040F824506D1C0AF105008542E9DB4498D0
:1014800010B94298401C4290641C40988442CEDBC4
:101490004298022808DA7648C9F8000000215398DB
:1014A00001704AB0BDE8F08F00242EE06D4951F87C
:1014B00024200B46611C53F821100A44A11C53F848
:1014C00021100A44E11C53F821105018C11700EBF9
:1014D000917189101A4642F82410664951F8242067
:1014E0000B46611C53F821100A44A11C53F821102B
:1014F0000A44E11C53F821105018C11700EB9171F8
:1015000089101A4642F82410641CB4F5F87FCDDB2C
:10151000002004900026002404E0002005A941F8E2
:101520002400641C052CF8DB00240DE021A850F8F1
:101530002400B0F5FA7F06DD4D48C9F8000000210F
:1015400053980170ADE7641C42988442EEDB00249E
:10155000AFE04FF07F400D900C9021A9601C51F836
:10156000200051F82410401A0A2879DD21A850F8EB
:10157000245016E03B4850F825100C98814204DDB9
:10158000384850F825000C900A953A4850F8251034
:101590000D98814204DD374850F825000D900B95D9
:1015A0006D1C21A9601C51F82000A842E2DC601CDF
:1015B00051F820002F4951F8200021A951F824109A
:1015C0002C4A52F82110401A21A951F824200B99D5
:1015D000891A4843109021A9601C51F8200051F845
:1015E0002410411A109890FBF1F021A951F8241011
:1015F000204A52F821100844109011460B9851F8D7
:1016000020101098081A109021A9601C51F8200091
:10161000144951F8200021A951F82410114A52F818
:101620002110401A21A951F824200A99891A484307
:101630000F9021A9601C51F8200051F82410411A84
:101640000F9890FBF1F021A951F82410054A52F8A7
:10165000211008440F9011460B9851F820100BE010
:1016600026E00000900D0020D00500203A6600081A
:1016700019FCFFFF601500200F98081A0F900C99B5
:1016800010984843C01103900D990F984843C71113
:10169000002F0DDD052E0BDA039848B1039800EBFF
:1016A0008000800090FBF7F005A941F82600761C29
:1016B000641C4298401EA0423FF74BAF314605A83C
:1016C000FFF7E4FC304606EBD0714FEA610BBBF14B
:1016D000010F0CDDABF1010105AA52F8211052F8FF
:1016E0002B20881800EBD0714910049103E005A865
:1016F00050F82B000490049802280DDD0498B828B7
:101700000ADA09490498085C0E900E98C9F800009E
:1017100001215398017005E00448C9F80000002138
:101720005398017000BFBCE67866000819FCFFFF03
:1017300070B505460C4600F0D1FBAE2000F086FCEB
:1017400000F011FC00B111E0284600F07FFC00F031
:101750000AFC00B10AE0204600F078FC00F003FC2F
:1017600000B103E000F0DEFB012070BD00F0DAFB09
:101770000020FAE770B5044600F0B0FBAE2000F0A0
:1017800065FC00F0F0FB00B119E0204600F05EFCC3
:1017900000F0E9FB00B112E000F0A0FBAF2000F088
:1017A00055FC00F0E0FB00B109E0002000F07DFCFA
:1017B000054600F028FC00F0B5FB284670BD00F09F
:1017C000B1FB0020FAE72DE9F04782460C461746A8
:1017D00000253E4600F082FBAE2000F037FC00F012
:1017E000C2FB00B13FE0504600F030FC00F0BBFB14
:1017F00000B138E000F072FBAF2000F027FC00F0F1
:10180000B2FB00B12FE029E0002000F04EFC804642
:1018100000F0D6FB002000F048FC814600F0D0FB31
:1018200049EA082024F82500002000F03EFC80460C
:1018300000F0C6FB002000F038FC8146012E02D1EA
:1018400000F0E1FB01E000F0BBFB49EA082004EBFB
:1018500085014880701EC6B2681CC5B2002ED3D167
:1018600000F060FB00BF00F05DFBBDE8F08770B5E5
:1018700005460C460020FFF77DFF0120FFF77AFFA9
:1018800000F02CFBAE2000F0E1FB00F06CFB00B19F
:101890002AE0284600F0DAFB00F065FB00B123E007
:1018A00000F01CFBAF2000F0D1FB00F05CFB00B1AE
:1018B0001AE0012000F0F9FB2070012000F0F5FB98
:1018C0006070012000F0F1FBA070012000F0EDFB42
:1018D000E070012000F0E9FB2071002000F0E5FB42
:1018E000607100F01FFB00BF00F01CFB70BD10B565
:1018F00040210920FFF71CFF40210920FFF718FFB6
:1019000010BD08B50121082001F02CF84FF48040EB
:10191000ADF8000048208DF803006946FE4800F04D
:1019200065FD00F0C1FAFFF7E2FFC0210220FFF7DA
:10193000FFFE00210320FFF7FBFE00210420FFF73C
:10194000F7FE00210520FFF7F3FE00210620FFF738
:10195000EFFE0F210820FFF7EBFE03210920FFF720
:10196000E7FE27210A20FFF7E3FE24210C20FFF7E2
:10197000DFFE24210D20FFF7DBFE7F211020FFF783
:10198000D7FE08BD70B504460D462A462146AE2056
:1019900000F02AFC70BD70B504460D462A4621466B
:1019A000AE2000F002FC70BDFEB506460C460020DD
:1019B0003060206002A9FFF7EEFF02A90120FFF7C7
:1019C000EAFF06236A460721AE2000F0BFFB9DF820
:1019D00000502D043068284430609DF801502D02DD
:1019E0003068284430609DF80250306828443060E8
:1019F0009DF803502D042068284420609DF8045071
:101A00002D022068284420609DF805502068284455
:101A100020603068C0F3110030602068C0F311000E
:101A20002060FEBDF0B502460E4600244FF4802330
:101A300000200DE052F82070A74201D952F8204052
:101A400052F820709F4201D252F82030471CB8B2A1
:101A5000FF28EFDDE71A4FF0140CB7FBFCF5002070
:101A600013E0470052F827704FF0010C0CEB400CCC
:101A700052F82CC007EB0C014908C91AB1FBF5F16B
:101A8000142900D91421471CB8B28028E9DBF0BD25
:101A90000EB5A248A24908600020A24908604FF490
:101AA000FA70A14908600020A04908604DE000BF1D
:101AB0009F4800680128FBD09E490720FFF7D7FE0A
:101AC0009C4800788007800B9A49497840EA0120B9
:101AD0009849897808439849944A126841F8220045
:101AE0009448C0788007800B9249097940EA012028
:101AF00090494979084391498C4A126841F822007B
:101B00008D488A49096850F821008549096888424A
:101B100006D289488549096850F821008049086043
:101B200085488249096850F821007E490968884241
:101B300006D981487D49096850F821007949086033
:101B40007A480068401C79490860784800687649FE
:101B500009688842ABDB78487449096850F821006D
:101B60007749086077487849784A794BCDE9002170
:101B70000290714A6C4801687048FFF759FB0EBD2E
:101B8000FEB504460D460020684908606348644974
:101B900008600020634908606420644908603AE0F6
:101BA00065486249096850F8211060480068643847
:101BB000614A42F8201061485C49096850F82110D8
:101BC0005A48006864385D4A42F820105A4857491C
:101BD000096850F8210052490968884206D25648DF
:101BE0005249096850F821004D49086052484F4950
:101BF000096850F821004B490968884206D94E48C7
:101C00004A49096850F82100464908604748006879
:101C1000401C4649086045480068B0F5FA7FBFDBC4
:101C20004FF4C87041490860DFE040480068401E3A
:101C3000414951F82000424908603E490720FFF71A
:101C400016FE3C4800788007800B3A49497840EA04
:101C500001203849897808433749344A126841F8E5
:101C600022003448C0788007800B3249097940EA65
:101C7000012030494979084330492C4A126841F81B
:101C800022002D482949096850F821002C4909688B
:101C9000884231D92849254A126851F82210284A29
:101CA0001268881A01F098FB2A4908601D490968E2
:101CB0001B4A1268881A01F08FFB064631462548F8
:101CC000006801F04BFB2349086023492148006864
:101CD00001F012FB1F4908600846006801F081FB13
:101CE0001E490968081A1D4908600846006800284E
:101CF00058DA0020086055E00F490C4A126851F884
:101D000022100F4A1268501A01F066FB1149086050
:101D100004490968024A23E0000C0140FFFF030068
:101D20003C00002040000020280000204800002047
:101D3000248121425500002000250020301D002074
:101D40004400002038000020340000203000002033
:101D50002C0000205000002000007F434C00002099
:101D60001268881A01F038FB06463146364800688A
:101D700001F0F4FA3449086034493348006801F04E
:101D8000BBFA314908600846006801F02AFB304977
:101D9000096808442E49086008460068FF2801DDEC
:101DA000FF2008602B480078012813D12A480068DA
:101DB00078280FDA2948007801280BD128480068D4
:101DC000652807DA244800782649087024480078F6
:101DD000254908702348007820702348007828702F
:101DE00022480068401C2149086020480068B0F57E
:101DF000FA7FFFF61AAF17481749184A184BCDE972
:101E0000002102901A4A1B4801681B48FFF710FA8C
:101E10001448007838B91448007820B917A11C4834
:101E200002F068F807E0104803780E48027819A11C
:101E3000174802F05FF814210D48FFF7F3FD002169
:101E40000D48FFF7EFFDFEBD5000002000007F436E
:101E50004C0000203800002034000020300000201A
:101E60002C0000205B0000205C00002048000020C7
:101E70000025002028000020301D002048523A2D67
:101E80002D2D2053704F323A2D2D2D2000000000B3
:101E9000D02C002048523A2533642053704F323AF8
:101EA000253364200000000008B50121082000F05F
:101EB00059FD4FF4C070ADF8000010208DF80300FC
:101EC00003208DF802006946D54800F08FFA012002
:101ED000D4490860D449C1F8A00108BD10B5D04864
:101EE000001D006820F00F00CD49091D086008465C
:101EF000006840F0070008600120CA49091D086019
:101F0000C949C1F89C01042000F0ADFF0020C5497B
:101F1000091D0860042000F0A6FF0020C249C1F896
:101F20009C0110BD10B5BE48001D006820F00F00D8
:101F3000BB49091D08600846006840F007000860BA
:101F40000020B8490860B849C1F8A001042000F099
:101F50008AFF0120B3490860B349C1F8A0010420F9
:101F600000F081FF10BD10B50024AD48001D0068D1
:101F700020F00F00AA49091D08600846006840F0DB
:101F8000040008600120A749091D086000F06BFFEC
:101F90000120A549C1F89C0100F065FF07E0601C25
:101FA000C4B2FA2C03DDFFF7BDFF012010BD9D4830
:101FB0007C3800680028F2D19A49086000BFF5E734
:101FC00010B50020974908609548001D006820F072
:101FD0000F009349091D08600846006840F007009B
:101FE000086000209049C1F8A001022000F03BFFEA
:101FF00001208C490860022000F035FF00208A494A
:10200000C1F89C0110BD10B50020864908608448C5
:10201000001D006820F00F008149091D0860084676
:10202000006840F00700086001207F49C1F8A00166
:10203000022000F018FF01207A490860022000F019
:1020400012FF00207849C1F89C0110BD70B504460C
:102050007348001D006820F00F007149091D0860D9
:102060000846006840F00700086000206D490860DD
:10207000002517E0E0096B49091D08606006040EA1
:10208000022000F0F0FE01206749C1F89C01022007
:1020900000F0E9FE002063490860022000F0E3FE42
:1020A000681CC5B2082DE5DB70BD70B5054600247F
:1020B0005B48001D006820F00F005949091D0860A9
:1020C0000846006840F004000860002616E0002082
:1020D00054490860022000F0C6FE01205249C1F8B0
:1020E0009C016006040E4F487C38006808B1601CF3
:1020F000C4B2012000F0B7FE701CC6B2082EE6DBA9
:1021000015B9FFF780FF01E0FFF75AFF204670BDC9
:102110002DE9F04107460D461646FFF7DFFE38462B
:10212000FFF794FFFFF71FFF002406E0285DFFF78D
:102130008DFFFFF718FF601CC4B2B442F6DBFFF757
:10214000F1FE0A2000F0B3FEBDE8F0812DE9F04178
:102150000746884614461D46FFF7C0FE3846FFF77F
:1021600075FFFFF700FF4046FFF770FFFFF7FBFE2C
:1021700047F00100FFF76AFFFFF7F5FE002605E0D4
:102180000120FFF792FFA055701CC6B2681EB04236
:10219000F6DC0020FFF789FF691E6054FFF7C2FEDE
:1021A0000A2000F084FEBDE8F08170B504460D46BB
:1021B0001646FFF793FE2046FFF748FFFFF7D3FED2
:1021C0002846FFF743FFFFF7CEFEFFF787FE44F0F8
:1021D0000100FFF73BFFFFF7C6FE0020FFF765FF9A
:1021E0003070FFF79FFE70BD70B506460C46154671
:1021F000FFF774FE3046FFF729FFFFF7B4FE2046D5
:10220000FFF724FFFFF7AFFE2846FFF71FFFFFF79A
:10221000AAFEFFF787FE0A2000F049FE70BD00000D
:10222000000C01409C8121420080214206488047E9
:1022300006480047FEE7FEE7FEE7FEE7FEE7FEE7AB
:10224000FEE7FEE7FEE7FEE7CF050008ED00000829
:1022500031490143314A1160704770B500210023B4
:102260000F22C47804B32D4C246804F4E064C4F550
:10227000E064210AC1F10403CA40447804FA03F17E
:102280008478144021430901254C0678A15504782F
:1022900004F01F050124AC4005786D11AD0005F177
:1022A000E025C5F8004109E0047804F01F05012489
:1022B000AC401C4D0678761145F8264070BD1A4A90
:1022C0000A400243154B1B1F1A60704739B1134A6D
:1022D000121D12680243114B1B1D1A6006E00F4AC3
:1022E000121D126882430D4B1B1D1A607047042893
:1022F00008D14FF0E021096941F004014FF0E022DC
:10230000116107E04FF0E021096921F004014FF06D
:10231000E0221161704700000000FA050CED00E0BA
:1023200000E400E080E100E080FFFF1F10B50446FC
:10233000CC48844208D10121042000F02DFB00216B
:10234000042000F029FB46E0C748844208D101215F
:10235000082000F021FB0021082000F01DFB3AE0DE
:10236000C248844208D10121102000F015FB002151
:10237000102000F011FB2EE0BD48844208D101215D
:10238000202000F009FB0021202000F005FB22E0C6
:10239000B848844208D10121402000F0FDFA002114
:1023A000402000F0F9FA16E0B348844208D1012138
:1023B000802000F0F1FA0021802000F0EDFA0AE020
:1023C000AE48844207D10121801500F0E5FA0021D2
:1023D000A01500F0E1FA10BD10B50121084600F08B
:1023E000DBFA0021012000F0D7FA10BD2DE9F04101
:1023F000024600250026002000230024002791F833
:1024000003C00CF00F0591F803C00CF0100CBCF1E8
:10241000000F03D091F802C04CEA050591F800C006
:10242000BCF1000F31D0146800202BE04FF0010CFC
:102430000CFA00F3B1F800C00CEA03069E4220D16A
:1024400083004FF00F0C0CFA03F7BC4305FA03FCB2
:102450004CEA040491F803C0BCF1280F06D14FF0F8
:10246000010C0CFA00FCC2F814C00AE091F803C099
:10247000BCF1480F05D14FF0010C0CFA00FCC2F87A
:1024800010C0401C0828D1D31460B1F800C0BCF1C2
:10249000FF0F34DD546800202EE000F1080C4FF0EF
:1024A000010808FA0CF3B1F800C00CEA03069E42DA
:1024B00021D183004FF00F0C0CFA03F7BC4305FA4F
:1024C00003FC4CEA040491F803C0BCF1280F05D1C9
:1024D00000F1080C08FA0CF8C2F8148091F803C057
:1024E000BCF1480F07D100F1080C4FF0010808FAC1
:1024F0000CF8C2F81080401C0828CED35460BDE808
:10250000F0814FF6FF710180022181700421C170BA
:1025100070470246002093680B400BB1012000E099
:10252000002070470146886880B27047024600204C
:10253000D3680B400BB1012000E00020704701463A
:10254000C86880B2704701617047416170470AB145
:10255000016100E041617047C16070474FF4803213
:102560000A438261816182618269826970470246A1
:102570000020434B18684FF68073184040EA021061
:1025800008433F4B186070473E49C8617047F0B53B
:102590000A46002300240021002500F00046B6F181
:1025A000004F02D1364EF16901E0354E7168C0F33B
:1025B000034583B200F44016B6F5401F08D121F060
:1025C00070612F4E766826F070662D4F7E6012E0A7
:1025D00000F48016B6F5801F06D1032606FA05F42E
:1025E000A14341F0706106E0460D360103FA06F69C
:1025F000B14341F0706122B1460D360103FA06F68F
:10260000314300F00046B6F1004F02D11C4EF1619B
:1026100001E01B4E7160F0BD30B500228B071C0F2E
:102620000F2303FA04F2164B08338C1053F82430AE
:102630009343134C08348D1044F8253023468C10F6
:1026400053F824308C07240F00FA04F423430C4C75
:1026500008348D1044F8253030BD0A49DC3108605B
:102660007047000000080140000C014000100140CC
:102670000014014000180140001C014000200140EE
:102680000000014000002042DF48006840F00100E7
:10269000DD49086008464068DC490840DA4948607E
:1026A00008460068DA490840D749086008460068CB
:1026B00020F4802008600846406820F4FE0048604E
:1026C0004FF41F0088607047CF49096821F48031BA
:1026D000CD4A11601146096821F480211160B0F5DE
:1026E000803F03D0B0F5802F0ED106E0C6490968BF
:1026F00041F48031C44A116007E0C349096841F4DC
:10270000A021C14A116000E000BF00BF704710B5B2
:1027100001460022002300204A11012A02D1BA4CAE
:10272000236806E0022A02D1B74C236A01E0B64CC6
:10273000636A01F01F02012494401C400CB1012087
:1027400000E0002010BD38B50020009000240025D6
:1027500000BF3120FFF7DBFF05460098401C0090CA
:102760000098B0F5A06F01D0002DF2D03120FFF716
:10277000CEFF08B1012400E00024204638BD014608
:102780000020A14A106820F0F80040EAC100106063
:102790007047A04908607047024600209A4B58686D
:1027A00020F47C1042EA01031843974B58607047AD
:1027B00098490866704701460020934A506820F007
:1027C00003000843506070478F48406800F00C00D9
:1027D0007047014600208C4A506820F0F000084302
:1027E0005060704701460020874A506820F4E0603E
:1027F00008435060704701460020834A506820F427
:10280000605040EAC1005060704729B17E4A527A58
:1028100002437D4B5A7204E07B4A527A82437A4BE0
:102820005A7270477B49D8310860704701460020D2
:10283000754A506820F440400843506070470021BA
:10284000714A20321170704A82F82010012802D09B
:1028500004280AD104E001216B4A2032117005E0FE
:102860000521694A2032117000E000BF00BF7047A7
:102870006949086070476449096A0143624A116204
:102880007047654944390860704730B5002100221F
:10289000002400235C4D6D6805F00C0121B1042972
:1028A00005D0082923D105E05C4D056022E05B4D91
:1028B00005601FE0544D6D6805F47012524D6D684F
:1028C00005F48034022505EB92421CB9544D554362
:1028D00005600BE04C4D6D6805F400351DB1504DA1
:1028E0005543056002E04D4D5543056002E04B4DF8
:1028F000056000BF00BF444D6D6805F0F001090997
:10290000484D6B5C0568DD4045603F4D6D6805F4E2
:10291000E061090A434D6B5C4568DD4085603A4DD6
:102920006D6805F46051C90A3E4D6B5C4568DD4039
:10293000C560354D6D6805F44041890B3A4D6B5CBF
:10294000C568B5FBF3F5056130BD29B12E4A526962
:1029500002432D4B5A6104E02B4A526982432A4BB1
:102960005A61704729B1284A92690243264B9A61FD
:1029700004E0254A92698243234B9A61704729B14A
:10298000214AD2690243204BDA6104E01E4AD2692F
:1029900082431D4BDA61704729B11B4AD26802435A
:1029A000194BDA6004E0184AD2688243164BDA60A9
:1029B000704729B1144A12690243134B1A6104E0AB
:1029C000114A12698243104B1A617047124940390B
:1029D000086070470F49C86470470B49C871704759
:1029E0000948406A40F080700749486270470146D4
:1029F0000020054A92680A400AB1012000E0002048
:102A00007047014988727047001002400000FFF8CB
:102A1000FFFFF6FE000042428004424200127A00AC
:102A200000093D005D0000206D00002010B5044647
:102A3000FB48844209D101218803FFF7ADFF002143
:102A40004FF48040FFF7A8FF32E0F648844209D1F6
:102A500001214804FFF7ADFF00214FF40030FFF7DC
:102A6000A8FF25E0F048844209D101218804FFF73E
:102A7000A0FF00214FF48020FFF79BFF18E0EB48F8
:102A8000844209D10121C804FFF793FF00214FF4CC
:102A90000020FFF78EFF0BE0E548844208D10121BA
:102AA0000805FFF786FF00214FF48010FFF781FF34
:102AB00010BD2DE9F04786B005460E460024A2461B
:102AC00000BFA1460027B08900B100BF2F462C8A65
:102AD0004CF6FF700440F08804432C82AC894EF61B
:102AE000F3100440B08831890843718908430443D6
:102AF000AC81AC8A4FF6FF400440B0890443AC82FD
:102B000001A8FFF7C2FEC648874202D1DDF810A037
:102B100001E0DDF80CA0A88900F4004040B10AEB08
:102B2000CA0000EB0A1031684900B0FBF1F807E079
:102B30000AEBCA0000EB0A1031688900B0FBF1F81B
:102B40006420B8FBF0F004012009642101FB108926
:102B5000A88900F4004040B1322000EBC900B0FB6E
:102B6000F1F000F00700044308E0322000EB091008
:102B70006421B0FBF1F000F00F0004432C8106B09B
:102B8000BDE8F0874FF41651016000218180C180BB
:102B900001810C21418100218181704710B50246DD
:102BA0000020108A4FF2FF0318400B884C88234303
:102BB0008C882343CC8823431843108210BD002106
:102BC000018041808180C180704721B1828942F4B7
:102BD0000052828104E082894DF6FF731A4082819F
:102BE0007047F0B50346002400260025002040F67B
:102BF0006A17B94200D100BF1846C1F3421401F070
:102C00001F06012707FA06F5012C01D10C3004E05C
:102C1000022C01D1103000E014301AB107682F43A4
:102C2000076002E00768AF430760F0BD1AB1838A0E
:102C30000B43838202E0838A8B4383827047028A3C
:102C40004FF6F0731A400282028A0A4302827047EA
:102C500082894FF2FF731A40828182890A438281FE
:102C6000704721B1828942F00202828104E08289A8
:102C70004FF6FD731A4082817047028A4FF6DF7368
:102C80001A400282028A0A430282704721B1028AF4
:102C900042F48042028204E0028A4BF6FF731A403B
:102CA00002827047C1F3080282807047014688881B
:102CB000C0F308007047818941F0010181817047AC
:102CC000028BD2B20283028B42EA01220283704756
:102CD000028B02F47F420283028B0A430283704715
:102CE00021B1828A42F02002828204E0828A4FF679
:102CF000DF731A408282704721B1828A42F010024B
:102D0000828204E0828A4FF6EF731A408282704713
:102D100021B1828A42F00802828204E0828A4FF660
:102D2000F7731A408282704721B1828942F40042CF
:102D3000828103E08289C2F30E028281704721B151
:102D4000828A42F40062828204E0828A4FF2FF7338
:102D50001A4082827047828A4FF6FB731A40828241
:102D6000828A0A438282704721B1828A42F002023B
:102D7000828204E0828A4FF6FD731A408282704795
:102D800002460020B1F5007F00D100BF13880B4040
:102D90000BB1012000E00020704701F40072B2F591
:102DA000007F00D100BFCA430280704770B5024661
:102DB000002400230025002040F66A16B14200D10D
:102DC00000BFC1F3421501F01F03012606FA03F309
:102DD000012D02D19689334006E0022D02D1168AD8
:102DE000334001E0968A33400C12012606FA04F4BF
:102DF0001688344013B10CB1012000E0002070BDF2
:102E000010B50022002340F66A14A14200D100BF91
:102E10000A1201249440A3B2DC43048010BD0000D8
:102E2000003801400044004000480040004C004091
:102E30000050004010B56FF00400FFF758FA2E481C
:102E400000682E49B0FBF1F02D4908700846007863
:102E500000EB4001C1EBC0104FF6FF7101EAC0006A
:102E60002849088010BD0146254A12784A434FF090
:102E7000E0235A6100229A611A46126942F0010267
:102E80001A6100BF4FF0E022106900F001021AB190
:102E900000F48032002AF5D04FF0E022126922F0CF
:102EA00001024FF0E0231A6100229A617047014647
:102EB000144A12884A434FF0E0235A6100229A6173
:102EC0001A46126942F001021A6100BF4FF0E02277
:102ED000106900F001021AB100F48032002AF5D026
:102EE0004FF0E022126922F001024FF0E0231A6154
:102EF00000229A61704700001400002000127A003E
:102F0000720000207400002010B54FF4A060FFF79D
:102F10009FF910BD00BF704700BFAA4A128802F097
:102F20004002002AF9D0C2B2A64B1B1D1A8070477E
:102F300010B5C821A44800F06AF90020A349088010
:102F400010BD10B586B00446012144F20400FFF71D
:102F500009FD4FF40070ADF8140003208DF8160041
:102F600018208DF8170005A99948FFF73FFA4FF48C
:102F70008060ADF8140004208DF8170005A994486E
:102F8000FFF734FA25208DF8000003208DF80100AA
:102F90008DF8020001208DF803006846FFF75DF907
:102FA00001940020ADF80800ADF80A00ADF80C005F
:102FB000ADF810000C20ADF80E0001A98148FFF714
:102FC00078FD012240F225517E48FFF70AFE0121DB
:102FD0007C48FFF7FAFDFFF7ABFF06B010BD00B568
:102FE00085B001210420FFF7BDFC01210846FFF751
:102FF000B9FC01214804FFF7C2FC0420ADF8100021
:1030000018208DF8130003208DF8120004A97048D1
:10301000FFF7ECF90820ADF8100004208DF813003C
:1030200004A96B48FFF7E2F94FF4E130009000206B
:10303000ADF80400ADF80600ADF80800ADF80C00DE
:103040000C20ADF80A0069466248FFF732FD012105
:103050006048FFF7BAFD05B000BD70B504460D46E7
:1030600029462046FFF71EFE00BF80212046FFF7BD
:1030700087FE0028F9D070BD70B506460C460025C5
:1030800000BF615D3046FFF7E8FF6D1C605D002802
:10309000F7D100BF40213046FFF772FE0028F9D07B
:1030A00070BD2DE9F04105460C46260AE7B23146CF
:1030B0002846FFF7F7FD00BF80212846FFF760FE96
:1030C0000028F9D039462846FFF7ECFD00BF8021E3
:1030D0002846FFF755FE0028F9D0BDE8F08110B56D
:1030E00040F225513748FFF761FE002839D03548B6
:1030F000FFF7DCFDC4B2242C02D100203349088044
:10310000324801880088401C304A10802E484454C0
:10311000007824281ED12C4800794D281AD12A483D
:103120004079432816D10A2C14D150212A4800F0A6
:103130006EF8264802882449274800F04FF80120FD
:10314000254981F85000002020490880C8211E48E8
:1031500000F05DF81D480088C82802DBC8201B4924
:10316000088010BD10B504462146174800F05AF8F3
:1031700008B1012010BD0020FCE710B50020164961
:1031800081F8500081F8510081F8780050211248F0
:1031900000F03DF81048523000210160416001818B
:1031A00081720B3001604160018181725D38A0F84D
:1031B00068106A300160416081606A38A0F876105A
:1031C00010BD000000380140AD2D00207A00002025
:1031D0000008014000440040342D002040EA010373
:1031E0009B0703D009E008C9121F08C0042AFAD2BD
:1031F00003E011F8013B00F8013B521EF9D2704781
:10320000D2B201E000F8012B491EFBD27047002228
:10321000F6E710B513460A4604461946FFF7F0FFD5
:10322000204610BD30B505462A460B4612F8010B64
:1032300013F8014B08B1A042F8D01CB1002802D00D
:103240006D1CF1E7284630BDF0B480EA0102D40FCE
:103250004200B2EB410F02D20246084611464A0034
:1032600042D0C30DDDB2C1F3C752AD1A202D35DAFD
:10327000C1F3160141F4000204B15242C5F1200627
:1032800002FA06F12A411044B3EBD05F23D0C4B157
:10329000012DA0EBC35009DCF0BC4FF0004202EA64
:1032A000C352DBB200F5000000F0ABB9400000F102
:1032B000807000EBC350A0F1807040EAD1704900EB
:1032C00009E0490841EAC071A0EBC35000F50000D5
:1032D000400800EBC350F0BC00F08AB96142012203
:1032E00002EB4101001BF6E7F0BC704781F00041A2
:1032F000AAE780F00040A7E780EA010210B502F0DB
:103300000043400022D04A001FD0010E01EB1261A1
:10331000C0F35600C2F3560240F4000042F400022B
:10332000A0FB022000047F39140400D0401C50EAA6
:10333000124001D44000491EC2B20C0604EBD0106A
:10334000401C4008802A02D003E0002010BD20F07D
:103350000100002900DA0020184310BD30B480EAD3
:10336000010202F0004530F0004221F0004013D08D
:1033700090B1C30DD40DC2F31601C0F31600E41AC8
:1033800041F4000140F400027D34914201D3641CF9
:1033900000E04900002C02DA30BC002070474FF4F6
:1033A00000000023914201D3891A034340084FEAE9
:1033B0004101F7D151B1914202D14FF0004105E0F6
:1033C00002D24FF0010101E06FF0010103EBC450A4
:1033D000284430BC00F00CB996230022114600F0BE
:1033E00010B900F0004220F00040C10DC0F31600FB
:1033F00040F400007F2901DA00207047962903DCA1
:10340000C1F19601C84001E096398840002AF4D005
:103410004042704720F00040C10DC0F3160040F458
:1034200000007F2901DA00207047962903DCC1F1F2
:103430009601C840704796398840704700F00042B6
:1034400030F000400AD0C10D01F56071C0F31600E4
:1034500042EA0151C208400711437047002001466B
:10346000704701F0004330B421F0004150EA0102FE
:1034700006D00A0DA2F56072C1F31301002A02DC26
:1034800030BC00207047440F44EAC104C100E0187A
:1034900030BC00EBC25000F0ABB80000002801DBEC
:1034A000C0F10040002901DBC1F1004181427047B9
:1034B000002801DBC0F10040002901DBC1F100411F
:1034C0008842704730B50B46014600202022012477
:1034D00009E021FA02F59D4205D303FA02F5491BE2
:1034E00004FA02F52844151EA2F10102F1DC30BDF8
:1034F0002DE9F05F0546002092469B468846064629
:10350000814640241BE0284641464746224600F0BB
:1035100080FA53465A46C01A914110D311461846B4
:10352000224600F067FA2D1A67EB01084F46224643
:103530000120002100F05EFA17EB00094E41201E29
:10354000A4F10104DFDC484631462A464346BDE883
:10355000F09F00000FB4002300B589B00CA90091C2
:103560000B996FF00042CB601E4B06931E4B0793E6
:103570000423CDE901321D4A089202466B46002021
:1035800000F0EEFA09B05DF814FB70B586B006469F
:103590004FF0FF300091CDE90101002015460C46A7
:1035A00004903246694604A8FFF7D4FF0346049806
:1035B000211825B108B10A4600E022462A600028F9
:1035C0000DD0002B02DD0098884208D0081B009423
:1035D000CDE901043246694604A8FFF7BBFF06B0F7
:1035E00070BD0000993D0008B73D0008573A00083B
:1035F0000029A8BF7047401C490008BF20F0010007
:10360000704710B4B0FA80FC00FA0CF050EA0104E4
:1036100004BF10BC704749B1CCF1200421FA04F476
:1036200011FA0CF118BF012121430843A3EB0C014F
:10363000CB1D4FEA00614FEA102042BF002010BCB2
:10364000704700EBC35010440029A4BF10BC704762
:10365000401C490008BF20F0010010BC70472DE954
:10366000FE4F804681EA0300C00F0C46009021F017
:10367000004123F00045B8EB0200A94105D24046C5
:10368000214690461C460B46024623F0004010435C
:1036900047D0270DC7F30A00C3F30A510290401A1E
:1036A000019040286BDAC3F3130040F4801B0098AC
:1036B000924620B10023D2EB030A63EB0B0B019877
:1036C0005946C0F14002504600F094F906460D46B6
:1036D00050465946019A00F0ACF910EB08006141E0
:1036E000002487EA115284EAE7731A4340D0009A13
:1036F00062B3019A012A4FEA075215DC001B61EB05
:1037000002014FF0004202EA0752CDE90042001CDC
:1037100041F5801132462B4600F06DFB03B0BDE849
:10372000F08F40462146F9E7001B61EB0201001CC7
:1037300041F5801300185B412018A2F5001747EBF4
:10374000030140EAD570B6196D4111E06D084FEAEA
:10375000360645EAC0754FEA0752001B61EB0201CD
:10376000001C41F5801149084FEA30000019514111
:1037700032462B4603B0BDE8F04F00F02DBB009859
:10378000012240000023D0EB020263EBE0730098BB
:1037900021464FEAE074B8EB000061EB0401E9E771
:1037A00083F000435BE781F0004158E72DE9FE4FCD
:1037B00081EA030404F0004421F0004100944FF03A
:1037C000000B23F0004350EA01045ED052EA0304E8
:1037D0005BD0C3F30A54C1F30A552C44A4F2F3346A
:1037E0000194A0FB0254C1F3130141F48011C3F30F
:1037F000130343F4801301FB024400FB034E840ACD
:10380000970A44EA815447EA8357A4FB0768029564
:103810008D0A05FB07854FEA932C04FB0C54270502
:10382000029D4FEA065847EA1637B5EB08056EEBDE
:10383000070C870E920E47EA811742EA8312A7FB14
:103840000201B6EB0B0164EB00042B0D43EA0C33D1
:103850005E1844EB1C50DA465146E7FB0201C5F303
:1038600013044FEA0B3343EA14534FEA0432019C2A
:1038700043EA0603A4F10C040294009CCDE900B4D1
:1038800000F0B9FA03B0BDE8F08F00200146F9E777
:103890002DE9F04D81EA030404F0004B21F00045CE
:1038A00014464FF0000A23F0004150EA050220D0F0
:1038B00054EA01021DD0C5F30A570246C5F31303AB
:1038C000C1F31300C1F30A5640F4801543F480138A
:1038D000A7EB0608101BD64608F2FD3873EB05006F
:1038E00002D308F1010801E092185B41B8F1000F22
:1038F00003DA00200146BDE8F08D00204FF480116E
:10390000064684460EE0171B73EB050705D3121B12
:1039100063EB050306434CEA010C49084FEA30000B
:1039200092185B4150EA0107EDD152EA030012D030
:1039300082EA040083EA0501084305D0101BAB416D
:1039400006D20122002306E000224FF0004302E0ED
:103950006FF0010253101AEB06004CEB085110EB0C
:103960000A0041EB0B01BDE8F04D00F035BAC1F3A0
:103970000A52C1F3130140F2FF3341F480119A421D
:1039800002DA00200146704740F233439A42A2F225
:10399000334202DC524200F03CB800F02BB8000089
:1039A00030B5041E71F1000404DB4FF000444042C6
:1039B00064EB0101141E73F1000405DB1C464FF09B
:1039C0000043524263EB0403994208BF904230BD6A
:1039D000064C074D06E0E06840F0010394E807005C
:1039E00098471034AC42F6D3FCF784FB70670008AC
:1039F00090670008202A04DB203A00FA02F1002038
:103A000070479140C2F1200320FA03F3194390401C
:103A10007047202A04DB203A21FA02F00021704787
:103A200021FA02F3D040C2F1200291400843194626
:103A30007047202A06DBCB17203A41FA02F043EA0E
:103A4000E07306E041FA02F3D040C2F12002914057
:103A5000084319467047C0B24FF4F05100F01ABA4B
:103A60002DE9FF4F087881B09946FF2805D0491C01
:103A70002D2804D00024002308E000230BE00124BB
:103A8000F9E703EB830300EB4303491C0878FF28A5
:103A9000F7D104B15B4200200090147801462D2C30
:103AA00001D02B2C04D1521C2D2C12D000240094B8
:103AB00000251678FF2E0ED00A24A0FB04C801FBB7
:103AC0000481002700FB0711521C16EB0C00694112
:103AD000EFE70124EBE7994450EA01020ED00024FD
:103AE000AA4D2646DFF8A88200F0E8F982468B4608
:103AF000B9F1000009DAC9F100071BE001980021C3
:103B0000C0E9001105B0BDE8F08F074612E0F807E4
:103B100007D022462B4630464146FFF747FE064671
:103B2000884622462B4610461946FFF73FFE0446BC
:103B30000D467F10002FEAD1B9F1000F32464346FF
:103B40005046594602DAFFF7A3FE01E0FFF72EFECA
:103B5000009A0AB181F00041019AC2E90001D1E75F
:103B60002DE9FF4F1F468DB0D7E901464FF0FF38D2
:103B70002E2045464FF000090B90B9696D1C0E9838
:103B80008847396A824688470028F6D1BAF1FF3F54
:103B90000AD024F4D064002E11DDBAF12B0F08D026
:103BA000BAF12D0F0BD102E0404611B0ABE744F45F
:103BB0008064B9696D1C0E9888478246761E6946F6
:103BC000600501D52D2000E02B208DF8000001F1CB
:103BD000010B0DF1200809E0B9696D1C0E988847AA
:103BE00082460F9844F40074761E0560002E02DDB4
:103BF000BAF1300FF0D00B998A453ED144F08004E1
:103C000006E00F99681CA9F1010944F400740860EA
:103C1000B9696D1C761E0E98884782463028F0D010
:103C20002BE00B998A4505D1200603D444F080048B
:103C3000761E18E0504600F03FFA08B30DF113016C
:103C4000761E44F400748B4508D2AAF130000BF8BC
:103C5000010B200607D5A9F1010003E0200602D4DC
:103C600009F101008146A00502D50F99681C086082
:103C7000B9696D1C0E9888478246002ED1DC53E04E
:103C8000002E51DDBAF1650F02D0BAF1450F4BD1CC
:103C9000A00549D5B9696D1C24F44074761E0E98B0
:103CA00088478246002E0CDD2B2804D0BAF12D0F58
:103CB00007D144F48074B9696D1C0E988847824618
:103CC000761EE00501D52D2100E02B2108F8011B0F
:103CD000CDF82C8021E00DF12901761E44F400740A
:103CE00088450CD2AAF1300010F0FF0088F80000DF
:103CF00002D10B99884509D908F1010806E0E005D1
:103D000001D5244801E042F20F708146B9696D1C6B
:103D10000E98884782460F980560002E04DD5046B5
:103D200000F0CAF90028D6D1F9690E988847FF201B
:103D30008BF8000088F800000020069007904B46A2
:103D40006A4608A906A8FFF78BFEA00502D46FF00B
:103D500001002AE714F0240F0AD0E00714D1DDE9AE
:103D600006123868031D3B600068C0E900120BE0D2
:103D7000DDE90601FFF775FB0146E00704D138686D
:103D8000021D3A600068016028460EE700002440EA
:103D90000000F03FF1D8FFFF426842B1016811F81E
:103DA000013B23B1521EC0E90012184670470121A1
:103DB000C160881E704742685AB1C368016843B940
:103DC00083688B4205D0491E521CC0E900120020B6
:103DD00070474FF0FF30704710B5141E73F10004A8
:103DE00008DA401C41F1000192185B411A4301D1ED
:103DF00020F0010010BD2DE9F04D92469B4611B117
:103E0000B1FA81F202E0B0FA80F220329046FFF778
:103E1000F1FD04460F4640EA0A0041EA0B01534611
:103E20005A46084313D0114653EA010019D0C8F18D
:103E300040025046FFF7EDFD05460E4650465946F6
:103E40004246FFF7D7FD084305D0012004E0204695
:103E50003946BDE8F08D0020054346EAE0762C4364
:103E600037430A986305E40AA0EB08000022FD0A24
:103E700044EA47540A3002D500200146E9E701052B
:103E800010196941DDE9084500196941BDE8F04DA7
:103E9000A2E700007F2801D9002208E0064A02EBD1
:103EA0005002C007127800D1120902F00F0201205F
:103EB0009040084070470000306700080EB540F29F
:103EC000334202920022CDE900221346FFF793FF0E
:103ED00003B000BD0FB4054B10B503A9044A029806
:103EE00000F0F2F810BC5DF814FB0000192F000878
:103EF0007C0000200FB4084B10B504A902AA039857
:103F000000F0E2F8044602A9002000F074FC20460C
:103F100010BC5DF814FB0000F7470008014800687A
:103F2000704700008400002002E008C8121F08C18A
:103F3000002AFAD170477047002001E001C1121F2A
:103F4000002AFBD17047000001490860704700005B
:103F5000840000202DE9FF5FDDE90220010DDDF87E
:103F600038B0024318D044F61050A1F2FF3141435B
:103F70000D140F98012820D0A5EB0B00401C5FEA20
:103F8000000A4FF00004474EDFF81C91A04650464F
:103F900016D5CAF1000728E00F98012443A2012892
:103FA00008D0002100980F9BC0E90021C0E902431E
:103FB000BDE8FF9F6FEA0B01F4E7CBF10000DEE7FD
:103FC000074612E0F80707D02246334640464946E6
:103FD000FFF7ECFB804689462246334610461946D9
:103FE000FFF7E4FB04460E467F10002FEAD1DDE91F
:103FF0000201BAF1000F42464B4602DAFFF7D6FB48
:1040000001E0FFF745FC04460E460022284BFFF76F
:10401000C7FC03D84FF0FF30014607E00022254BD4
:1040200020463146FFF71BFBFFF7A1FC102409E0F7
:10403000002C0ADB0A220023FFF75AFA019B3032D8
:104040001A55641E50EA0102F2D1641C019AC4F1AF
:10405000110314440F9A012A03D0012208430DD101
:104060000AE0084304D000204FF0110B0F9080E7C6
:10407000A3EB0B056D1E0DE05B4504DD4FF0000268
:1040800005F1010504E003DA4FF00002A5F1010596
:10409000002AECD000980F99C0E90231C0E9004530
:1040A00086E70000000024400000F03F30000000E0
:1040B0000000F0430000E03F30380A2801D2012020
:1040C00070470020704700002DE9FF4F95B09B46D8
:1040D0008946064600250FE2252877D10024274689
:1040E000F84A0121059400E0044316F8013F203B03
:1040F00001FA03F01042F7D130782A2811D06FF07E
:104100002F033078A0F13002092A16D8059A44F01E
:10411000020402EB820203EB42021044761C05907B
:10412000EFE759F8042B0592002A03DA504244F4D1
:104130000054059044F00204761C30782E2816D1E5
:1041400016F8010F44F004042A280DD06FF02F0256
:104150003078A0F13003092B09D807EB870302EB75
:104160004303C718761CF3E759F8047B761C3078B4
:104170006C280FD006DC4C2817D068280DD06A2890
:1041800014D104E0742810D07A280FD10DE044F443
:1041900000140AE044F4801401E044F440147278FE
:1041A000824202D104F58014761C761C3078662891
:1041B0000BD013DC582877D009DC002875D04528AF
:1041C000F6D04628F4D047281AD19DE118E063289C
:1041D00035D0642879D0652812D195E1702873D044
:1041E00008DC6728F1D069286FD06E280DD06F28C1
:1041F00006D1B5E073282CD0752875D0782874D0F6
:104200005A46179990476D1C75E1C4F30250022875
:1042100009D003280DD0D9F8001004280DD00D6066
:1042200009F1040967E1D9F80010EA17C1E9005261
:10423000F6E7D9F800100D80F2E70D70F0E719F8F5
:10424000041B8DF8001000208DF80100EA460120C3
:1042500003E059F804AB4FF0FF3061074FF0000165
:1042600002D40DE008F101018846B9420FDA804519
:10427000F8DB1AF808100029F4D108E008F1010170
:1042800088468142FADB1AF808100029F6D1059811
:104290005B46A0EB080721463846179A00F094FACF
:1042A000284400EB080507E04DE029E10DE01AF88D
:1042B000010B5A4617999047B8F10108F7D25B46AF
:1042C00021463846179A13E142E00A220092C4F3CD
:1042D00002524FF0000A022A08D059F804CB032AF0
:1042E0004FEAEC710AD00DE029E02AE009F107015C
:1042F00021F00702F2E802C1914609E00FFA8CFCB6
:104300004FEAEC71042A03D14FFA8CFC4FEAEC71AE
:10431000002907DA0A460021DCF1000C61EB0201FA
:104320002D2202E0220504D52B228DF80420012243
:1043300003E0E20701D02022F7E7904659E00A2186
:1043400002E010220DE010214FF0000A00910BE076
:1043500010224FF0000A44F004040827009203E002
:1043600008224FF0000A0092C4F30252022A05D03C
:1043700059F804CB0021032A08D009E009F107010C
:1043800021F00702F2E802C1914605E01FFA8CFC19
:10439000042A01D10CF0FF0C4FF00008220728D5A9
:1043A000702806D0009B83F0100353EA0A0305D05F
:1043B0000EE040228DF80420012208E05CEA0102B0
:1043C00006D030228DF804208DF805000222904698
:1043D000009B83F0080353EA0A030AD15CEA010256
:1043E00001D1620705D530228DF804204FF0010875
:1043F0007F1E582804D034A003900EA802900DE030
:1044000036A0F9E753466046009AFFF771F88446F4
:104410000398825C0298401E029002705CEA0100E0
:10442000F0D1029806A9081A00F1200A600702D507
:1044300024F4803400E00127574502DDA7EB0A0091
:1044400000E0002000EB0A01009005984144401A6A
:104450000590E00306D45B462146179A059800F0C4
:10446000B3F90544002706E001A85A46C05D179934
:1044700090476D1C7F1C4745F6DBE0030CD55B467F
:104480002146179A059800F09FF9054404E0302072
:104490005A46179990476D1C0099481E00900029B4
:1044A000F5DC08E0029802995A460078491C02910E
:1044B000179990476D1CBAF10001AAF1010AF1DCCD
:1044C00065E10000092801003031323334353637D8
:1044D0003839616263646566000000003031323350
:1044E00034353637383941424344454600000000F0
:1044F00000F058F90544761C307800287FF4ECADC4
:1045000019B02846BDE8F08F620700D4062709F1EC
:10451000070222F0070CFCE80223E14603F0004802
:104520005FEA080C02D00FF2702C0DE05FEA045C29
:1045300002D50FF2682C07E05FEAC47C02D00FF2CC
:10454000602C01E0AFF2700C4FF0FF3823F0004315
:10455000CDF850C065280CD006DC452809D0462887
:104560001DD047283DD13DE0662818D067287ED170
:1045700038E00021112F01DB112000E0781CCDE98B
:10458000000106A90EA8FFF7E5FCDDE90F010E9A70
:1045900003910021009207F1010A04914DE04FF0D0
:1045A00000400097CDE9011006A90EA8FFF7D2FC44
:1045B000DDE90F0203920E9B11990022DDF80CA099
:1045C0000093049211B9791C00EB010AB7EB0A00C1
:1045D00004D4C0F1FF3007F1010A0490AAEB0700F0
:1045E000019044E0012F00DA01270021112F01DDA5
:1045F000112000E03846CDE9000106A90EA8FFF71A
:10460000A9FCDDE90F010E9A0391002104910092AB
:10461000BA4621070CD40399514500DA8A46BAF10B
:10462000010F05DD009AAAF10101515C302908D083
:10463000B84202DA10F1040F06DA0121CDE90110C7
:1046400015E0AAF10101E9E7002805DC049901441D
:104650000491AAEB000102E0411C514500DD8A46AD
:104660000499401A401C01904FF00040029020072E
:1046700004D40198504501DBCDF8048000208DF86A
:104680004F0002980DF14F07B0F1004F25D02B20BD
:104690000E9002984FF0020800280CDA4042029077
:1046A0002D200E9007E00A210298FEF70BFF303113
:1046B000029007F8011DB8F10001A8F10108F2DC31
:1046C00002980028EFD1791E0E980870307800F01B
:1046D000200040F0450007F8020D12A8C01B00F1B1
:1046E00007081498007800B1012000EB0A01019836
:1046F00001EBE07105984144401A401E0590E0032B
:1047000006D45B462146179A059800F05DF80544EB
:104710001498007818B15A46179990476D1CE00319
:1047200024D55B462146179A059800F04DF80544BC
:104730001CE00498002807DBDDE90301884203DD63
:104740000098405C179901E0179930205A4690472D
:10475000049805F10105401C04900198401E019049
:1047600004D12E205A46179990476D1CBAF10001CA
:10477000AAF1010ADDDC05E017F8010B5A4617998A
:1047800090476D1CB8F10001A8F10108F4DC5B460C
:104790002146179A0598ABE62D0000002B0000007B
:1047A000200000002DE9F041044600251E46174672
:1047B000880404D405E039462020B0476D1C641EEF
:1047C000F9D52846BDE8F0812DE9F04104460025E1
:1047D0001E469046C80301D5302700E020278804F4
:1047E00004D505E041463846B0476D1C641EF9D536
:1047F0002846BDE8F0810A68531C0B6010707047B2
:1048000030B583B00446FFF789FB05460020CDE9AB
:104810000000024621466846FEF7B7FE2846FFF72D
:1048200093FBDDE9000103B030BD00000000000093
:104830000000002F000000000700070000147F1494
:104840007F1400242A7F2A12006264081323003692
:104850004955225000000503000000001C224100C1
:10486000000041221C000014083E08140008083E05
:104870000808000000A06000000808080808000000
:1048800060600000002010080402003E5149453ECF
:104890000000427F400000426151494600214145ED
:1048A0004B31001814127F10002745454539003C54
:1048B0004A49493000017109050300364949493622
:1048C00000064949291E0000363600000000563611
:1048D00000000008142241000014141414140000F5
:1048E0004122140800020151090600324959513E83
:1048F000007C1211127C007F49494936003E41413B
:104900004122007F4141221C007F49494941007FEB
:1049100009090901003E4149497A007F0808087FDA
:104920000000417F4100002040413F01007F08140A
:104930002241007F40404040007F020C027F007F08
:104940000408107F003E4141413E007F09090906ED
:10495000003E4151215E007F091929460046494920
:1049600049310001017F0101003F4040403F001FED
:104970002040201F003F4038403F0063140814636C
:1049800000070870080700615149454300007F4156
:10499000410000552A552A55000041417F0000047E
:1049A00002010204004040404040000001020400B7
:1049B000002054545478007F48444438003844441C
:1049C000442000384444487F0038545454180008A8
:1049D0007E0901020018A4A4A47C007F08040478C6
:1049E0000000447D4000004080847D00007F10284E
:1049F00044000000417F4000007C04180478007CE3
:104A00000804047800384444443800FC2424241862
:104A10000018242418FC007C08040408004854549E
:104A2000542000043F444020003C4040207C001CB7
:104A30002040201C003C4030403C004428102844CA
:104A4000001CA0A0A07C004464544C441414141412
:104A5000141400000000000000000000000000002E
:104A6000FC000000000002000000000C020C02002C
:104A700000000000000090D0BCD0BC9000030003F8
:104A800000001824FE448C000302070201001824D1
:104A9000D8B04C80000300010201C038E438E000C7
:104AA00001020201020208060000000000000000EE
:104AB0000000000000F804020000000102040002EF
:104AC00004F800000004020100009060F86090000B
:104AD0000000010000002020FC2020000000010058
:104AE0000000000000000000080600000000202078
:104AF0002020200000000000000000000000000056
:104B00000002000000000080601C0200040300009E
:104B10000000F8040404F800010202020100000889
:104B2000FC00000000020302000018844424180066
:104B300003020202020008042424D8000102020237
:104B4000010040B088FC80000000000302003C240B
:104B50002424C400010202020100F824242CC00015
:104B60000102020201000C04E41C04000000030026
:104B70000000D8242424D800010202020100384495
:104B80004444F8000003020201000000100000008D
:104B900000000200000000002000000000000600ED
:104BA00000000020508804020000000001029090E4
:104BB0009090900000000000000000020488502047
:104BC0000002010000001804C424180000000200C4
:104BD0000000F804E494F80001020202020000E080
:104BE0009CF0800002030000030204FC2424D8008F
:104BF000020302020100F80404040C000102020294
:104C0000010004FC0404F80002030202010004FC99
:104C100024740C0002030202030004FC24740C0040
:104C2000020302000000F0080444CC40000102022C
:104C3000010004FC2020FC04020300000302040421
:104C4000FC040400020203020200000404FC040449
:104C500006040403000004FC24D00C040203020038
:104C6000030204FC04000000020302020203FC3CF5
:104C7000C03CFC0003000300030004FC30C4FC043F
:104C8000020302000300F8040404F8000102020217
:104C9000010004FC24241800020302000000F88430
:104CA0008404F80001020207050004FC2464980053
:104CB000020302000302182424448C0003020202AF
:104CC00001000C04FC040C0000020302000004FCC0
:104CD0000000FC04000102020100047C80E01C04CE
:104CE0000000030000001CE03CE01C000003000387
:104CF0000000049C609C0400020300030200041CEA
:104D0000E01C04000002030200000C84641C040088
:104D10000203020203000000FE020200000007047A
:104D20000400000E30C0000000000001020000027C
:104D300002FE00000004040700000004020400005A
:104D40000000000000000000000000000808080843
:104D50000808000002000000000000000000004001
:104D6000A0A0C00000010202030204FC2020C00039
:104D700000030202010000C02020600000010202C6
:104D8000020000C02024FC0000010202030200C057
:104D9000A0A0C0000001020202000020F8242404A8
:104DA0000002030202000040A0A0602000070A0ADF
:104DB0000A0404FC2020C0000203020003020020B9
:104DC000E4000000000203020000000020E40000F4
:104DD00008080807000004FC80E02020020302000D
:104DE00003020404FC000000020203020200E020AF
:104DF000E020C00003000300030020E02020C000EA
:104E000002030200030200C02020C00000010202D1
:104E1000010020E02020C000080F0A02010000C0AD
:104E20002020E0000001020A0F0820E040202000BE
:104E30000203020000000060A0A0200000020202A5
:104E400003000020F820000000000102020020E022
:104E50000020E00000010202030220E02080602028
:104E60000000030100006080E08060000003000398
:104E7000000020608060200002030003020020E0A8
:104E8000208060200808070100000020A0602000AA
:104E9000000203020200000020DE02000000000702
:104EA0000400000000FF00000000000F00000002EE
:104EB000DE200000000407000000020102040402DA
:104EC00000000000000000000000000000000000E2
:104ED000000000000000000000F8000000000000DA
:104EE00000333000000000100C06100C060000001B
:104EF00000000000000040C07840C0784000043F3F
:104F000004043F040400007088FC0830000000180E
:104F100020FF211E0000F008F000E0180000002132
:104F20001C031E211E0000F00888700000001E21D6
:104F300023241927211010160E0000000000000085
:104F4000000000000000000000E018040200000063
:104F500000071820400000020418E0000000004094
:104F6000201807000000404080F08040400002020E
:104F7000010F01020200000000F00000000001012A
:104F8000011F01010100000000000000000080B0CE
:104F900070000000000000000000000000000001A0
:104FA00001010101010100000000000000000030CB
:104FB0003000000000000000000080601804006065
:104FC00018060100000000E010080810E000000FC3
:104FD000102020100F00001010F80000000000202A
:104FE000203F202000000070080808887000003072
:104FF000282422213000003008888848300000181A
:10500000202020110E000000C02010F80000000732
:105010000424243F240000F80888880808000019A8
:10502000212020110E0000E0108888180000000FD9
:10503000112020110E0000380808C83808000000B0
:10504000003F000000000070880808887000001C05
:10505000222121221C0000E010080810E0000000BE
:10506000312222110F00000000C0C000000000002B
:105070000030300000000000008000000000000050
:105080008060000000000000804020100800000147
:10509000020408102000404040404040400004040A
:1050A00004040404040000081020408000000020D4
:1050B000100804020100007048080808F000000011
:1050C000003036010000C030C828E810E0000718A2
:1050D000272423140B000000C038E0000000203C0F
:1050E00023020227382008F8888888700000203FB3
:1050F000202020110E00C0300808080838000718CA
:1051000020202010080008F808080810E000203FC0
:10511000202020100F0008F88888E8081000203FA1
:1051200020202320180008F88888E8081000203F75
:10513000200003000000C0300808083800000718ED
:105140002020221E020008F808000008F808203F6E
:10515000210101213F20000808F808080000002074
:10516000203F2020000000000808F8080800C08048
:1051700080807F00000008F888C028180800203FC1
:1051800020012638200008F8080000000000203F19
:1051900020202020300008F8F800F8F80800203F10
:1051A000003F003F200008F830C00008F808203F0A
:1051B000200007183F00E01008080810E0000F105A
:1051C000202020100F0008F808080808F000203FF1
:1051D000210101010000E01008080810E0000F188C
:1051E000242438504F0008F8888888887000203FB1
:1051F0002000030C302000708808080838000038B0
:10520000202121221C00180808F8080818000000B6
:10521000203F2000000008F808000008F808001FE0
:10522000202020201F000878880000C838080000CF
:1052300007380E010000F80800F80008F800033CE9
:105240000700073C030008186880806818082030B1
:105250002C03032C30200838C800C8380800000090
:10526000203F2000000010080808C8380800203837
:10527000262120201800000000FE0202020000008B
:10528000007F40404000000C30C0000000000000E3
:1052900000010638C00000020202FE0000000040CB
:1052A00040407F00000000000402020204000000F1
:1052B00000000000000000000000000000008080EE
:1052C00080808080808000020204000000000000D6
:1052D00000000000000000008080808000000019B5
:1052E000242222223F2008F8008080000000003F96
:1052F000112020110E000000008080800000000EB0
:10530000112020201100000000808088F800000E8D
:10531000112020103F200000808080800000001FAE
:10532000222222221300008080F088888818002022
:10533000203F202000000000808080808000006BE3
:1053400094949493600008F8008080800000203FCF
:10535000210000203F2000809898000000000020DD
:10536000203F20200000000000809898000000C02E
:105370008080807F000008F8000080808000203F4F
:1053800024022D302000000808F800000000002052
:10539000203F202000008080808080808000203F8F
:1053A00020003F20003F8080008080800000203F60
:1053B000210000203F200000808080800000001F2E
:1053C000202020201F00808000808000000080FFBF
:1053D000A12020110E000000008080808000000EBF
:1053E000112020A0FF80808080008080800020200D
:1053F0003F21200001000000808080808000003379
:10540000242424241900008080E080800000000013
:10541000001F202000008080000000808000001F0E
:10542000202020103F2080808000008080800001AC
:105430000E300806010080800080008080800F30E0
:105440000C030C300F000080800080808000002062
:10545000312E0E312000808080000080808080818D
:105460008E701806010000808080808080000021FE
:10547000302C2221300000000000807C020200005D
:105480000000003F404000000000FF00000000005E
:105490000000FF0000000002027C800000000040CD
:1054A000403F000000000006010102020404000069
:1054B00000000000000000000000000000000000EC
:1054C00000000000000000000000000000000000DC
:1054D000000000000000000000000000000000F0DC
:1054E000F0F0000000000000000000017F0100005B
:1054F000000000000000001C1C1C00000000000058
:105500008060301C8C60301C0C000000000000002B
:10551000000000000000000000000000000000008B
:105520000000000000E00000000000E00000008635
:10553000E69F86868686E69F860000011F010101A0
:1055400001011F010100000080C06020F820E0C0C0
:105550000000000003070C18FF70E181000000004C
:10556000070F10107F100F07000080602060800080
:105570000000E02000000F3020309F70DC3710303A
:10558000C0000000100E03000718101807000000EC
:10559000C02020E0C0000000000080E01F38E88745
:1055A00003C43C040000070F1810100B070D101067
:1055B000080000808C4C3800000000000000000053
:1055C00000000000000000000000000000000000DB
:1055D00000000000000000000000000080E0300833
:1055E00004000000000000FEFF01000000000000B9
:1055F00000000000030F1820400000040830E08085
:105600000000000000000000000001FFFE0000009C
:105610000000004020180F03000000000000000000
:1056200000000000C00000000000004266663C1858
:10563000FF183C6666420000000000000300000006
:1056400000000000000000008000000000000010CA
:1056500010101010FF1010101010000000000000BB
:105660000300000000000000000000000000000037
:1056700000000000000000000000000000000080AA
:105680008C4C38000000000000000000000000000A
:10569000000000000000001010101010101010107A
:1056A00010000000000000000000000000000000EA
:1056B00000000000000000000000000000000000EA
:1056C00000000000000000001C1C1C000000000086
:1056D00000000000000000000000E0380C000000A6
:1056E000000080701C03000000000060380E010004
:1056F000000000000000000080C060202060C0802A
:10570000000000FEFF010000000001FFFE0000019C
:10571000070E181010180E0701000000808080C0CE
:10572000E000000000000000000000FFFF0000009B
:10573000000000001010101F1F101010000000804B
:10574000402020202060C080000000030300804033
:1057500020381F070000001C1A1918181818181FE5
:1057600000000080C020202060C0800000000003F6
:1057700003001010182FE780000000070F10101012
:1057800010180F070000000000000000C0E0F0004B
:10579000000000C0B088868180FFFF80800000008C
:1057A00000000010101F1F1010000000E06060607B
:1057B00060606060000000003F1008080818F0E01A
:1057C000000000070B101010101C0F030000000059
:1057D00080C040202020E0C0000000FCFF21100815
:1057E000080818F0E0000001070C18101010080F4E
:1057F00003000000C0E06060606060E060000000E6
:1058000003000000E0180700000000000000001F77
:105810001F00000000000080C0602020202060C029
:1058200080000087EF2C1818303068CF8300000705
:105830000F0810101010180F07000000C0C0202023
:105840002020C0800000001F3F604040402010FF2B
:10585000FE0000000C1C101010080F0300000000D8
:105860000000000000000000000000000000000E2A
:105870000E0E0000000000000000001C1C1C0000B8
:105880000000000000000000000000000000000018
:105890000000000C0C000000000000000000005898
:1058A00038000000000000000000000000804020E0
:1058B00010000000102844820100000000000000D9
:1058C00000000000010204081000000000000000B9
:1058D0000000000000000084848484848484848424
:1058E0008400000000000000000000000000000034
:1058F00010204080000000000000000000000000B8
:105900000182442810000000100804020100000079
:10591000000000C020201010101030E0C000000374
:10592000030000F010080C070300000000001C1C1E
:105930001C0000000000000000C04060202020404B
:10594000C00000FCFF01F00E03C1FE03807F0001D8
:10595000070E08111110110904020000000080E078
:10596000E000000000000000807C4340477FF8809A
:10597000000010181F1000000000131F1C1020E072
:10598000E02020202060C080000000FFFF101010E9
:1059900010182FE78000101F1F1010101010180F84
:1059A0000700000080C0402020202060E00000FCB4
:1059B000FF0100000000000001000001070E1810A8
:1059C00010100804030020E0E02020202040C080C8
:1059D000000000FFFF000000000001FFFE00101F9C
:1059E0001F10101018080E07010020E0E0202020F2
:1059F00020202060800000FFFF101010107C0000AD
:105A00000000101F1F10101010101018060020E0CA
:105A1000E020202020206060800000FFFF10101098
:105A2000107C00000100101F1F100000000000008B
:105A30000000000080C06020202040E0000000FC4A
:105A4000FF0100004040C0C140400001070E181097
:105A500010100F0F000020E0E0200000000020E008
:105A6000E02000FFFF101010101010FFFF00101FAB
:105A70001F1000000000101F1F100000202020E059
:105A8000E020202000000000000000FFFF000000D8
:105A9000000000001010101F1F1010100000000068
:105AA0000000202020E0E020202000000000000076
:105AB00000FFFF0000000060E0808080C07F3F00AA
:105AC000000020E0E020000020A06020200000FF77
:105AD000FF30187CE3C000000000101F1F10000002
